:060000000A128A11F32F21
:100008000030F3000030F2002530F1008030F000BD
:10001800003083160313181901300A168A1526258D
:100028000A128A110A168A15FC240A128A11033048
:100038000A168A110C200A128A11710883160313F2
:10004800CD007008CC00443083120313C100803007
:10005800C0000030BF000030BE004030A700A03014
:10006800A6000030A5000030A400831603134C0836
:10007800F0004D08F100F201F30100300A168A1170
:10008800D6200A128A11730883120313AB00720870
:10009800AA007108A9007008A8000A128A159F24EE
:1000A8000A128A11831203132708C5002608C40000
:1000B8002508C3002408C2000A168A1190210A12D2
:1000C8008A1183120313410883160313CB0083128A
:1000D8000313400883160313CA00831203133F084F
:1000E80083160313C900831203133E0883160313F0
:1000F800C8009130C5004508A0004B08A4004A0874
:10010800A3004908A2004808A100D0300A128A11A9
:1001180070210A128A11831603132108CF002008C0
:10012800CE004E08C5004508F100D0300A168A15E1
:100138000F250A128A111F3083160313C700713066
:10014800C6001D30C500C50BA728C60BA728C70BBE
:10015800A728AE281B280A128A1100280310720D3E
:10016800730DF800780883120313A5002508031DF2
:10017800BE28BF28C8280030F3000030F200003045
:10018800F1000030F0006F290310760D770DF800AC
:100198007808A4002408031DD228D328D428BF280F
:1001A800F217FF30F005FF30F105FF30F20500309F
:1001B800F305F617FF30F405FF30F505FF30F605B7
:1001C8000030F7050030A3000030A2000030A10085
:1001D8000030A0007F30A502A0302407F80078087E
:1001E800A5022030F8007808A4000130F8000310B8
:1001F800A00DA10DA20DA30DF80BFB287708730223
:10020800031D102976087202031D10297508710252
:10021800031D102974087002031C132914292329AB
:100228007408F0027508031C750FF1027608031CA8
:10023800760FF2027708031C770FF30220140130BF
:10024800F8000310F00DF10DF20DF30DF80B252950
:100258000130A402031D31293229F928A51F3529A7
:10026800362950292508803A9F3E03183C293D2904
:100278003E29BF2801300310A30CA20CA10CA00C2E
:10028800FF3E031D3F290130F8007808A507031D2C
:100298004E294F293E29672920302502031C55295C
:1002A80056296229BF280130F8000310A00DA10DBE
:1002B800A20DA30DF80B59290130A5022508031D2D
:1002C8006629672957292308F3002208F200210824
:1002D800F1002008F000080083160313BD00AF01E9
:1002E800B001A130A5002508AE00D82F253044065E
:1002F80003197F29802992294408A5003D08840014
:100308002508831380000130A5002508BD070130AA
:10031800AF070318B00A0030B007D82FB101B201F7
:10032800200884000A168A1500200A128A112E3A1B
:10033800031D9F29A029E52932170130A5002508AA
:10034800A007BE01BF01D4290A30F0000030F10037
:10035800831603133F08F3003E08F2000A168A15B5
:100368006C250A128A11710883160313BF007008DE
:10037800BE00200884000A168A1500200A128A1175
:10038800D03EA500FF3003180030A6002508BE07A0
:100398000318BF0A2608BF070130A5002508A007D3
:1003A800200884000A168A1500200A128A110A16E3
:1003B8008A15EA240A128A110318E329E429A829CC
:1003C800EB29BE01BF013216EB293215072A01308D
:1003D80083160313A007FF30200784000A168A1526
:1003E80000200A128A11C400A500A6012608003AB6
:1003F8000319FF29D82F2508003A0319EA2F663A6E
:100408000319E929D82F00303105A5000730320536
:10041800A600250826040319122A132A932F321E30
:10042800162A172A1B2A0630BE000030BF002E08E5
:10043800840083130008C000840A0008C100840AED
:100448000008C200840A0008C3000430A50025087B
:10045800AE074308F3004208F2004108F1004008E3
:10046800F0000030F7000030F6000030F5000030F2
:10047800F4000A168A1134200A128A110318452A30
:10048800462A632A831603134308F3004208F2003E
:100498004108F1004008F0000A168A15DF240A1204
:1004A8008A11730883160313C3007208C200710807
:1004B800C1007008C0000330B1040030B2048316D4
:1004C8000313B701B8014308F3004208F2004108DA
:1004D800F1004008F0000030F7000030F60000306E
:1004E800F5000030F4000A168A1536260A128A1119
:1004F80003187F2A802A702B031083160313420DDA
:10050800430D823EB700FF3003180030B800FF30BB
:10051800B7070318B80AFF30B8070330F0000030F7
:10052800F1003808F3003708F2000A168A156C251E
:100538000A128A11710883160313B8007008B700ED
:100548000A30F7000030F8003808FA003708F900D8
:100558000A168A1597270A128A1178088316031330
:10056800B8007708B700B81FBA2ABB2AC12AFF30DB
:10057800B7070318B80AFF30B8073703FF3A0A125B
:100588008A1540210A128A1183120313410883161F
:100598000313BC0083120313400883160313BB0024
:1005A800831203133F0883160313BA00831203133D
:1005B8003E0883160313B900430883120313A700E8
:1005C80083160313420883120313A600831603132A
:1005D800410883120313A5008316031340088312EE
:1005E8000313A400831603133C0883120313AB0000
:1005F800831603133B0883120313AA0083160313FD
:100608003A0883120313A9008316031339088312C7
:100618000313A8000A128A159F240A128A1183124A
:100628000313270883160313BC0083120313260839
:1006380083160313BB0083120313250883160313C1
:10064800BA0083120313240883160313B9003C0865
:10065800F3003B08F2003A08F1003908F0003F3097
:10066800F7008030F6000030F5000030F4000A167C
:100678008A1134200A128A110318432B442B4D2B5C
:10068800FF3083160313B7070318B80AFF30B807FB
:10069800702B831603133C08F3003B08F2003A085A
:1006A800F1003908F0004130F7002030F600003042
:1006B800F5000030F4000A168A1134200A128A1153
:1006C800031C672B682B702B013083160313B707A5
:1006D8000318B80A0030B807831603133F08803A96
:1006E800FF0080307F02031D7B2B0D303E02031874
:1006F8007E2B7F2BC62B831603133E080A168A11FE
:100708006D230A128A11831203134108D500400889
:10071800D4003F08D3003E08D200831603134308D1
:1007280083120313D9008316031342088312031399
:10073800D80083160313410883120313D7008316C6
:100748000313400883120313D6000A168A1178256A
:100758000A128A1183120313550883160313C30060
:1007680083120313540883160313C200831203135E
:10077800530883160313C100831203135208831608
:100788000313C000831603133808803AFF00803033
:100798007F02031DD12B0A3037020318D42BD52B27
:1007A800262C831603134308F3004208F20041087D
:1007B800F1004008F0000030F7000030F60000308B
:1007C800F5000030F4000A168A1536260A128A1136
:1007D8000318EF2BF02B982C83160313430883126E
:1007E8000313D40083160313420883120313D300A0
:1007F80083160313410883120313D20083160313CD
:10080800400883120313D1000A128A1507200A121E
:100818008A11831203135408530452045104031D0C
:10082800162C172C982C831603133808803AFF00CF
:1008380080307F02031D222C02303702031C252C36
:10084800262C982C831603133C08F3003B08F2006F
:100858003A08F1003908F0004030F7008930F60016
:100868007030F5005F30F4000A168A1134200A123D
:100878008A110318402C412C4A2CF7308316031395
:10088800B7070318B80AFF30B807522CF830831698
:100898000313B7070318B80AFF30B80737080A1256
:1008A8008A1540210A128A118312031341088316FC
:1008B8000313BC0083120313400883160313BB0001
:1008C800831203133F0883160313BA00831203131A
:1008D8003E0883160313B9004308F3004208F200E8
:1008E8004108F1004008F0003C08F7003B08F6001A
:1008F8003A08F5003908F4000A128A11B2200A12DF
:100908008A11730883160313B6007208B5007108BC
:10091800B4007008B3000030C3000030C2000030DB
:10092800C1000030C0001C2D831603134308831236
:100938000313D40083160313420883120313D3004E
:1009480083160313410883120313D200831603137B
:10095800400883120313D1000A128A1507200A12CD
:100968008A1183120313540883160313B6008312E3
:100978000313530883160313B50083120313520895
:1009880083160313B4008312031351088316031349
:10099800B3003608F3003508F2003408F1003308D4
:1009A800F00000300A168A11D6200A128A1173083C
:1009B80083120313E9007208E8007108E700700861
:1009C800E60083160313430883120313ED0083160E
:1009D8000313420883120313EC0083160313410820
:1009E80083120313EB0083160313400883120313C7
:1009F800EA000A168A1548250A128A118312031377
:100A0800690883160313C300831203136808831647
:100A18000313C20083120313670883160313C1006C
:100A280083120313660883160313C000B701B801C5
:100A3800C401C40A4408A50001300310A50DFF3EF7
:100A4800031D212D0310250D693E84000A168A1501
:100A580000200A128A11A6000A168A1500200A1216
:100A68008A11A7000A168A1500200A128A11A800FE
:100A78000A168A1500200A128A11A90029083602C6
:100A8800031D502D28083502031D502D2708340258
:100A9800031D502D260833020318532D542D552DB0
:100AA8005F2D0130A5002508C4070A304406031D40
:100AB8005E2D5F2D1E2D03303105A5000030320557
:100AC800A6002508260403196A2D6B2DE42D2D3068
:100AD800A5003D0884002508831380000130A50087
:100AE8002508BD070130AF070318B00A0030B0076A
:100AF800E42D4408A50001300310A50DFF3E031D99
:100B0800802D0310250D693E84000A168A150020E1
:100B18000A128A11F0000A168A1500200A128A1190
:100B2800F1000A168A1500200A128A11F2000A1624
:100B38008A1500200A128A11F3003608F7003508D2
:100B4800F6003408F5003308F4000A168A15312730
:100B58000A128A11730883160313BC007208BB00BB
:100B68007108BA007008B9000030F3000030F200D4
:100B78000030F1000A30F0003C08F7003B08F600AE
:100B88003A08F5003908F4000A168A1584260A126C
:100B98008A11730883160313BC007208BB0071081E
:100BA800BA007008B9003908303EA5003D08840035
:100BB8002508831380000130A5002508BD07762D80
:100BC8000130C402440A031DEA2DEB2D7D2D052EAC
:100BD800303083160313A5003D08840025088313CD
:100BE80080000130A5002508BD070130AF070318B4
:100BF800B00A0030B007FF30B7070318B80AFF3053
:100C0800B8073808803AFF0080307F02031D0E2E97
:100C1800013037020318112E122EEC2D8316031300
:100C28003F08803AFF0080307F02031D1D2E0930E7
:100C38003E02031C202E212E282E08308316031373
:100C4800A5002508C4002E2E831603133E08A50010
:100C58002508C4004408A500A6012508BE022608E8
:100C6800031CBF03BF02440803193B2E3C2E4D2E24
:100C78002E30A5003D08840025088313800001302C
:100C8800A5002508BD070130AF070318B00A0030DA
:100C9800B00744080A128A1540210A128A118312E1
:100CA8000313410883160313AD008312031340088E
:100CB80083160313AC00831203133F088316031330
:100CC800AB00831203133E0883160313AA002D08F2
:100CD80083120313AB00831603132C088312031328
:100CE800AA00831603132B0883120313A900831683
:100CF80003132A0883120313A80083160313430857
:100D080083120313A70083160313420883120313E5
:100D1800A60083160313410883120313A500831644
:100D28000313400883120313A4000A128A159F2490
:100D38000A128A11831203132708D4002608D30045
:100D48002508D2002408D1000A128A1507200A12A1
:100D58008A1183120313540883160313B6008312EF
:100D68000313530883160313B500831203135208A1
:100D780083160313B4008312031351088316031355
:100D8800B3006D2F4408A50001300310A50DFF3EE8
:100D9800031DC92E0310250D693E84000A168A1505
:100DA80000200A128A11F0000A168A1500200A1279
:100DB8008A11F1000A168A1500200A128A11F20017
:100DC8000A168A1500200A128A11F3003608F7005D
:100DD8003508F6003408F5003308F4000A168A15B9
:100DE80031270A128A11730883160313BC0072088C
:100DF800BB007108BA007008B9000030F300003079
:100E0800F2000030F1000A30F0003C08F7003B081F
:100E1800F6003A08F5003908F4000A168A158426FF
:100E28000A128A11730883160313BC007208BB00E8
:100E38007108BA007008B9003908303EA5003D08AD
:100E480084002508831380000130A5002508BD070C
:100E58000130AF070318B00A0030B0074408A500F6
:100E680001300310A50DFF3E031D352F0310250D7E
:100E7800693E84000A168A1500200A128A11F000B9
:100E88000A168A1500200A128A11F1000A168A1514
:100E980000200A128A11F2000A168A1500200A1286
:100EA8008A11F3003608F7003508F6003408F50013
:100EB8003308F4000A168A1584260A128A11730860
:100EC80083160313B6007208B5007108B4007008E1
:100ED800B3000130C402440A031D732F742FC62EB9
:100EE8008C2F3030A5003D0884002508831380002E
:100EF8000130A5002508BD070130AF070318B00A67
:100F08000030B007FF30BE070318BF0AFF30BF0725
:100F18003E083F04031D912F922F752FD82F3E08AE
:100F28003F04031D982F992FA72F36083504340442
:100F38003304031DA02FA12FA72F0130BE070318CC
:100F4800BF0A0030BF073F08803A803C031DAE2F20
:100F58003E0844020318B12FB22FB32FC22F8316B5
:100F680003133F08803AA50080302502031DBE2FD9
:100F780044083E020318C12FC22FC22F0330831624
:100F880003133105A50000303205A6002508260404
:100F98000319CF2FD02FD82F2D30A5003D0884005E
:100FA80025088313800087290130A007FF30200718
:100FB80084000A168A1500200A128A11A50025083D
:100FC800C4004408031DE92FEA2F7A293D0884004C
:100FD800831380013008A1002F08A00008008313A4
:100FE800C8308400E4300A168A15D7240A128A11F8
:080FF80083010A128A1104288A
:10100E00031083120313530D540DD5005508DB0046
:10101E005B08031D132814281D280030D40000304F
:10102E00D3000030D2000030D10082285108D50004
:10103E005208D6005308D7005408D8001F300310AA
:10104E00D80CD70CD60CD50CFF3E031D2628550800
:10105E00D9005908DA00D317FF30D105FF30D20579
:10106E00FF30D3050030D4059630DB02DB1F40285D
:10107E0041285B285B08803A973E0318472848288A
:10108E004928142801300310D40CD30CD20CD10CE7
:10109E00FF3E031D4A280130D5005508DB07031D0E
:1010AE0059285A284928722820305B02031C6028D0
:1010BE0061286D2814280130D5000310D10DD20DF2
:1010CE00D30DD40DD50B64280130DB025B08031D54
:1010DE007128722862285A080319762877288228E0
:1010EE00D109D209D309D409D10A0319D20A031995
:1010FE00D30A0319D40A08007008F8007108F90021
:10110E007208FA000310790D7A0DFB007B0883122A
:10111E000313A5002508031D952896289F28003047
:10112E00F3000030F2000030F1000030F0003F29F3
:10113E007408F8007508F9007608FA000310790DA6
:10114E007A0DFB007B08A4002408031DAF28B028ED
:10115E00B1289628F117FF30F005FF30F105003069
:10116E00F205F517FF30F405FF30F5050030F605F2
:10117E000030A3000030A2000030A1000030A0001B
:10118E007F30A50298302407F8007808A5021830A1
:10119E00F8007808A4000130F8000310A00DA10D8E
:1011AE00A20DA30DF80BD42876087202031DE528B4
:1011BE0075087102031DE52874087002031CE828E7
:1011CE00E928F4287408F0027508031C750FF10263
:1011DE007608031C760AF202201401300310F00D7B
:1011EE00F10DF20DFF3E031DF5280130A402031D83
:1011FE0001290229D228A51F0529062920292508FB
:10120E00803A973E03180C290D290E299628013095
:10121E000310A30CA20CA10CA00CFF3E031D0F2962
:10122E000130F8007808A507031D1E291F290E2975
:10123E00372918302502031C2529262932299628FC
:10124E000130F8000310A00DA10DA20DA30DF80B97
:10125E0029290130A5022508031D362937292729FA
:10126E002308F3002208F2002108F1002008F00004
:10127E00080083120313D000D01F46294729F42AF1
:10128E00D009D00A5008803A123E031C4F2950292B
:10129E00382A0A30F7000030F8005008F200F30147
:1012AE00F21BF3036430F0000030F1000A168A15C9
:1012BE00D8260A128A157108FA007008F9000A1663
:1012CE008A1597270A128A15770883120313C2000C
:1012DE0001300310C20DFF3E031D70290310420D95
:1012EE00593E84000A168A1500200A128A15C30078
:1012FE000A168A1500200A128A15C4000A168A15C3
:10130E0000200A128A15C5000A168A1500200A1234
:10131E008A15C6004608A7004508A6004408A50081
:10132E004308A4006430F7000030F8005008F900BC
:10133E00FA01F91BFA030A168A1597270A128A155B
:10134E00770883120313C70001300310C70DFF3E49
:10135E00031DAC290310470D7D3E84000A168A1525
:10136E0000200A128A15C8000A168A1500200A12D1
:10137E008A15C9000A168A1500200A128A15CA0093
:10138E000A168A1500200A128A15CB004B08AB00EC
:10139E004A08AA004908A9004808A8000A128A1596
:1013AE009F240A128A15831203132708CF002608DA
:1013BE00CE002508CD002408CC000A30F000003005
:1013CE00F1005008F200F301F21BF3030A168A151E
:1013DE00D8260A128A15700883120313C200013030
:1013EE000310C20DFF3E031DF7290310420D353EBB
:1013FE0084000A168A1500200A128A15C3000A16DE
:10140E008A1500200A128A15C4000A168A150020B1
:10141E000A128A15C5000A168A1500200A128A15A4
:10142E00C6004608A7004508A6004408A5004308C4
:10143E00A4004F08AB004E08AA004D08A9004C08A6
:10144E00A8000A128A159F240A128A158312031302
:10145E002708C1002608C0002508BF002408BE00CA
:10146E009E2C5008803A753E031C3E2A3F2AC72AFE
:10147E000A30F0000030F1005008F200F301F21BC8
:10148E00F3030A168A15D8260A128A1570088312D3
:10149E000313C20001300310C20DFF3E031D522A7A
:1014AE000310420D353E84000A168A1500200A12DA
:1014BE008A15C3000A168A1500200A128A15C4005E
:1014CE000A168A1500200A128A15C5000A168A15F0
:1014DE0000200A128A15C6004608A7004508A60075
:1014EE004408A5004308A4000A30F7000030F800B5
:1014FE005008F900FA01F91BFA030A168A15972704
:10150E000A128A15770883120313C70001300310DD
:10151E00C70DFF3E031D8E2A0310470D593E840052
:10152E000A168A1500200A128A15C8000A168A158C
:10153E0000200A128A15C9000A168A1500200A12FE
:10154E008A15CA000A168A1500200A128A15CB00BF
:10155E004B08AB004A08AA004908A9004808A80091
:10156E000A128A159F240A128A158312031327085A
:10157E00C1002608C0002508BF002408BE009E2C0E
:10158E005008C20001300310C20DFF3E031DCA2ACF
:10159E000310420D353E84000A168A1500200A12E9
:1015AE008A15C3000A168A1500200A128A15C4006D
:1015BE000A168A1500200A128A15C5000A168A15FF
:1015CE0000200A128A15C6004608C1004508C00050
:1015DE004408BF004308BE009E2C5008803A123EBD
:1015EE00031CFA2AFB2AE32B0A30F7000030F8001E
:1015FE005008F200F301F21BF3036430F0000030E8
:10160E00F1000A168A15D8260A128A157108FA00F0
:10161E007008F9000A168A1597270A128A15770894
:10162E0083120313C20001300310C20DFF3E031DCF
:10163E001B2B0310420D253E84000A168A1500202E
:10164E000A128A15C3000A168A1500200A128A1574
:10165E00C4000A168A1500200A128A15C5000A1639
:10166E008A1500200A128A15C6004608A7004508EA
:10167E00A6004408A5004308A4006430F70000301B
:10168E00F8005008F900FA01F91BFA030A168A1538
:10169E0097270A128A15770883120313C7000130A1
:1016AE000310C70DFF3E031D572B0310470D493E78
:1016BE0084000A168A1500200A128A15C8000A1616
:1016CE008A1500200A128A15C9000A168A150020EA
:1016DE000A128A15CA000A168A1500200A128A15DD
:1016EE00CB004B08AB004A08AA004908A9004808DD
:1016FE00A8000A128A159F240A128A158312031350
:10170E002708CF002608CE002508CD002408CC00DF
:10171E000A30F0000030F1005008F200F301F21B25
:10172E00F3030A168A15D8260A128A157008831230
:10173E000313C20001300310C20DFF3E031DA22B86
:10174E000310420D013E84000A168A1500200A126B
:10175E008A15C3000A168A1500200A128A15C400BB
:10176E000A168A1500200A128A15C5000A168A154D
:10177E0000200A128A15C6004608A7004508A600D2
:10178E004408A5004308A4004F08AB004E08AA0069
:10179E004D08A9004C08A8000A128A159F240A12A7
:1017AE008A15831203132708C1002608C0002508D6
:1017BE00BF002408BE009E2C5008803A753E031CC4
:1017CE00E92BEA2B722C0A30F0000030F1005008A1
:1017DE00F200F301F21BF3030A168A15D8260A1239
:1017EE008A15700883120313C20001300310C20D54
:1017FE00FF3E031DFD2B0310420D013E84000A1611
:10180E008A1500200A128A15C3000A168A150020AE
:10181E000A128A15C4000A168A1500200A128A15A1
:10182E00C5000A168A1500200A128A15C600460837
:10183E00A7004508A6004408A5004308A4000A30E6
:10184E00F7000030F8005008F900FA01F91BFA030E
:10185E000A168A1597270A128A1577088312031318
:10186E00C70001300310C70DFF3E031D392C0310B6
:10187E00470D253E84000A168A1500200A128A1585
:10188E00C8000A168A1500200A128A15C9000A16FF
:10189E008A1500200A128A15CA000A168A15002017
:1018AE000A128A15CB004B08AB004A08AA00490859
:1018BE00A9004808A8000A128A159F240A128A1540
:1018CE00831203132708C1002608C0002508BF0095
:1018DE002408BE009E2C5008C20001300310C20D19
:1018EE00FF3E031D752C0310420D013E84000A16A7
:1018FE008A1500200A128A15C3000A168A150020BE
:10190E000A128A15C4000A168A1500200A128A15B0
:10191E00C5000A168A1500200A128A15C600460846
:10192E00C1004508C0004408BF004308BE000800BF
:10193E008312031327088039AC002C08B100270846
:10194E00AC002C07AD002D08B700A61FAF2CB02C95
:10195E00B12C371437080319B52CB62CC52C370A01
:10196E00031DBA2CBB2CC32C0030A7000030A600E0
:10197E000030A5000030A400A617CD2C0030A70023
:10198E000030A6000030A5000030A4002B088039DE
:10199E00AC002C08B1062B08AC002C07AD002D08AE
:1019AE00B600AA1FDB2CDC2CDD2C361436080319EE
:1019BE00E12CE22CF12C360A031DE62CE72CEF2C41
:1019CE000030AB000030AA000030A9000030A800A3
:1019DE00AA17F92C0030AB000030AA000030A90085
:1019EE000030A80036080319FD2CFE2C032D3708F5
:1019FE00031D022D032D0C2D0030A7000030A60074
:101A0E000030A5000030A400FF2F2408AC002C08E5
:101A1E00F0002A080A168A1591250A128A157108ED
:101A2E0083120313BD007008BC003C08AC00AD016E
:101A3E00AE01AF012F08B5002E08B4002D08B3007B
:101A4E002C08B2003D08AC00AD01AE01AF012F086D
:101A5E00BB002E08BA002D08B9002C08B8002508C6
:101A6E00AC002C08F00029080A168A1591250A12D6
:101A7E008A15710883120313BD007008BC003C0860
:101A8E00AC00AD01AE01AF012C08B2072D08031159
:101A9E000318013E0319542DB3072E080311031822
:101AAE00013E03195B2DB4072F0803110318013EE5
:101ABE000319622DB5073D08AC00AD01AE01AF01B3
:101ACE002C08B8072D0803110318013E0319702DB9
:101ADE00B9072E0803110318013E0319772DBA0713
:101AEE002F0803110318013E03197E2DBB0726088C
:101AFE00AC002C08F00028080A168A1591250A1247
:101B0E008A15710883120313BD007008BC003C08CF
:101B1E00AC00AD01AE01AF012C08B2072D080311C8
:101B2E000318013E03199C2DB3072E080311031849
:101B3E00013E0319A32DB4072F0803110318013E0C
:101B4E000319AA2DB5073D08AC00AD01AE01AF01DA
:101B5E002C08B8072D0803110318013E0319B82DE0
:101B6E00B9072E0803110318013E0319BF2DBA073A
:101B7E002F0803110318013E0319C62DBB070830A9
:101B8E00AC000310B20DB30DB40DB50DAC0BC82DDA
:101B9E002508AC002C08F00028080A168A15912595
:101BAE000A128A15710883120313BD007008BC0057
:101BBE003C08AC003D08AD00AE01AF012C08B207E9
:101BCE002D0803110318013E0319EE2DB3072E083D
:101BDE0003110318013E0319F52DB4072F08031145
:101BEE000318013E0319FC2DB5072408AC002C0880
:101BFE00F00029080A168A1591250A128A1571080D
:101C0E0083120313BD007008BC003C08AC003D08F5
:101C1E00AD00AE01AF012C08B2072D080311031859
:101C2E00013E03191B2EB3072E0803110318013EA4
:101C3E000319222EB4072F0803110318013E0319AE
:101C4E00292EB5070830AC000310B20DB30DB40D3C
:101C5E00B50DAC0B2B2E2408AC002C08F000280878
:101C6E000A168A1591250A128A1571088312031312
:101C7E00BD007008BC003C08AC003D08AD00AE01D4
:101C8E00AF012C08B2072D0803110318013E0319EA
:101C9E00512EB3072E0803110318013E0319582EB7
:101CAE00B4072F0803110318013E03195F2EB50761
:101CBE002508AC002C08F0002A080A168A15912572
:101CCE000A128A15710883120313BD007008BC0036
:101CDE003C08AC003D08AD00AE01AF012C08B807C2
:101CEE002D0803110318013E03197E2EB9072E0885
:101CFE0003110318013E0319852EBA072F0803118D
:101D0E000318013E03198C2EBB072608AC002C08C5
:101D1E00F00029080A168A1591250A128A157108EB
:101D2E0083120313BD007008BC003C08AC003D08D4
:101D3E00AD00AE01AF012C08B8072D080311031832
:101D4E00013E0319AB2EB9072E0803110318013EED
:101D5E000319B22EBA072F0803110318013E0319F7
:101D6E00B92EBB072608AC002C08F0002A080A166C
:101D7E008A1591250A128A15710883120313BD0064
:101D8E007008BC003C08AC003D08AD00AE01AF01D0
:101D9E0008300310AC0DAD0DAE0DAF0DFF3E031DA3
:101DAE00D02E2C08B8072D0803110318013E031975
:101DBE00E12EB9072E0803110318013E0319E82E70
:101DCE00BA072F0803110318013E0319EF2EBB07A4
:101DDE003208AC003308AD003408AE003508AF0051
:101DEE0018300310AF0CAE0CAD0CAC0CFF3E031D47
:101DFE00F82E2C08B8072D0803110318013E0319FD
:101E0E00092FB9072E0803110318013E0319102FCD
:101E1E00BA072F0803110318013E0319172FBB072A
:101E2E000830AC000310B20DB30DB40DB50DAC0BF4
:101E3E00192F37083607AC00AD01AD0D2C08823EC8
:101E4E00BC002D080318013EFF3EBD004B2F013094
:101E5E00AC000310B80DB90DBA0DBB0DAC0B302F85
:101E6E00B51F3A2F3B2F3C2F38140130AC00031016
:101E7E00B20DB30DB40DB50DAC0B3E2FFF30BC073C
:101E8E000318BD0AFF30BD07BA1F4E2F4F2F2E2F3E
:101E9E00B601B51F532F542F702FFF303205AC00F3
:101EAE00FF303305AD00FF303405AE007F30350511
:101EBE00AF002F082E042D042C040319672F682F52
:101ECE006B2FB601B60A702F381C6E2F6F2F702F26
:101EDE00682F36080319742F752FA62F0130B807F7
:101EEE00003003180130B907003003180130BA076B
:101EFE00003003180130BB073B1C862F872FA62FFF
:101F0E003808AC003908AD003A08AE003B08AF0007
:101F1E000130B0002F0DAF0CAE0CAD0CAC0CB00BF5
:101F2E00912F2F08BB002E08BA002D08B9002C08DF
:101F3E00B8000130BC070318BD0A0030BD073D08CC
:101F4E00803AFF0080307F02031DAF2FFF303C022E
:101F5E00031CB22FB32FBE2F7F3083120313BB008F
:101F6E008030BA000030B9000030B800F32F831271
:101F7E0003133D08803AFF0080307F02031DC92FF6
:101F8E0001303C020318CC2FCD2FD92F00308312F5
:101F9E000313BB000030BA000030B9000030B800A7
:101FAE00B101F32F831203133C08AC002C08B700C9
:101FBE00FF30B805FF30B9057F30BA050030BB05DC
:101FCE00371CEA2FEB2FEC2FBA173708AC00031093
:101FDE002C0CAD002D08BB003108AC002C08BB0446
:101FEE003B08A7003A08A6003908A5003808A40047
:101FFE000800F00083160313981C062807280128F2
:10200E0070088312031399000800F4000330F200E5
:10201E00740A13280310F20DFF3E031D11287208D7
:10202E00C738F3007308831203139F041F151F197B
:10203E00212822281E280D30F300FB30F200F20B6F
:10204E002628F30B26282B28831203131E08F100D3
:10205E00831603131E08F000080000307005F80008
:10206E0000307105F90080307205FA007F3073057B
:10207E00FB007B087A0479047804031D472848285E
:10208E0050280030F3000030F2000030F100003034
:10209E00F00000307405F80000307505F90080304E
:1020AE007605FA007F307705FB007B087A04790409
:1020BE007804031D632864286C280030F700003074
:1020CE00F6000030F5000030F400F31F6F28702882
:1020DE0094280030F8000030F9000030FA0080300B
:1020EE00FB007008F8027108031C710F7F2880280E
:1020FE00F9027208031C720F85288628FA027308EB
:10210E00031C730F8B288C28FB027B08F3007A08C4
:10211E00F2007908F1007808F000F71F9728982848
:10212E00BC280030F8000030F9000030FA00803092
:10213E00FB007408F8027508031C750FA728A82861
:10214E00F9027608031C760FAD28AE28FA0277083E
:10215E00031C770FB328B428FB027B08F7007A081C
:10216E00F6007908F5007808F4008030F306803028
:10217E00F70677087302031DCE2876087202031D38
:10218E00CE2875087102031DCE287408700203183C
:10219E00D128D228D4280310D52803140800F8001B
:1021AE0078080319DB28DC28F028F31FDF28E02845
:1021BE00F0287009FA007109FB007209FC0073091E
:1021CE00FD00FA0A0319FB0A0319FC0A0319FD0A9A
:1021DE00F8287308FD007208FC007108FB007008F7
:1021EE00FA007308720471047004031DFF2800299D
:1021FE0009290030F3000030F2000030F100003009
:10220E00F0008F299630F4007408F9001B29013074
:10221E00F4007408F90701300310FD0CFC0CFB0CE4
:10222E00FA0CFF3E031D1329FE307D05031D2029E8
:10223E0021290E293D290130F4007408F9070130D7
:10224E00FA07003003180130FB0700300318013085
:10225E00FC07003003180130FD0701300310FD0CA0
:10226E00FC0CFB0CFA0CFF3E031D3529FF307D05DF
:10227E00031D4229432922294F290130F902013039
:10228E00F4000310FA0DFB0DFC0DFD0DF40B4829A7
:10229E00FC1B522953295929023079020318582957
:1022AE005929442979185C295D296529FF30FA05D9
:1022BE00FF30FB057F30FC05FF30FD050310F90CE8
:1022CE007908F400F501F601F70118300310F40D4A
:1022DE00F50DF60DF70DFF3E031D6D297408FA047A
:1022EE007508FB047608FC047708FD0478080319CA
:1022FE00812982298729F31F852986298729FD1798
:10230E007D08F3007C08F2007B08F1007A08F000EB
:10231E0008008312031345088039C6004608CF0013
:10232E004508C6004607C7004708D600C41FA029A7
:10233E00A129A229561456080319A629A729B72997
:10234E00560A031DAB29AC29B4290030C500003054
:10235E00C4000030C3000030C200C417C501BF293D
:10236E000030C5000030C4000030C3000030C20091
:10237E0041088039C6004608CF064108C600460708
:10238E00C7004708D700C01FCD29CE29CF29571423
:10239E0057080319D329D429E429570A031DD8292C
:1023AE00D929E1290030C1000030C0000030BF0043
:1023BE000030BE00C017C101EC290030C100003052
:1023CE00C0000030BF000030BE00410840043F0492
:1023DE003E04031DF329F4290D2A0030C5000030F8
:1023EE00C4000030C3000030C2008030C4047F300F
:1023FE00C5044F08C6004608C5044508C100440878
:10240E00C0004308BF004208BE006C2B5608031DD7
:10241E00112A122A1B2A0030C1000030C0000030E1
:10242E00BF000030BE006C2B5608C600C70147081F
:10243E00C90057084602C800031CC90348087F3E5E
:10244E00D00049080318013E003ED1004508CE00D9
:10245E004408CD004308CC004208CB000030C50034
:10246E000030C4000030C3000030C2000030D50080
:10247E000030D4000030D3000030D200D701912AB2
:10248E00570803194B2A4C2A6C2A0130C600031038
:10249E00CB0DCC0DCD0DCE0DC60B4E2A0130C60088
:1024AE000310C20DC30DC40DC50DC60B572AD51F83
:1024BE00612A622A632A42140130C6000310D20D2B
:1024CE00D30DD40DD50DC60B652A41084E02031D42
:1024DE007A2A40084D02031D7A2A3F084C02031D3A
:1024EE007A2A3E084B02031C7D2A7E2A8D2A551716
:1024FE003E08CB023F08031C3F0FCC024008031CD2
:10250E00400FCD024108031C410FCE020130C60020
:10251E004608D7071A305702031C962A972A472ACD
:10252E004E084D044C044B0403199E2A9F2ABE2AC2
:10253E005214BE2A0130C6000310C20DC30DC40DC5
:10254E00C50DC60BA32AD51FAD2AAE2AAF2A42143B
:10255E000130C6000310D20DD30DD40DD50DC60B10
:10256E00B12AFF30D0070318D10AFF30D107C41F9C
:10257E00C12AC22AA12AD701D51FC62AC72AE32AF1
:10258E00FF305205C600FF305305C700FF3054051B
:10259E00C8007F305505C900490848044704460461
:1025AE000319DA2ADB2ADE2AD701D70AE32A421CCC
:1025BE00E12AE22AE32ADB2A57080319E72AE82A46
:1025CE00192B0130C207003003180130C307003049
:1025DE0003180130C407003003180130C507451C2D
:1025EE00F92AFA2A192B4208C6004308C7004408E4
:1025FE00C8004508C9000130CA00490DC90CC80CF5
:10260E00C70CC60CCA0B042B4908C5004808C400E9
:10261E004708C3004608C2000130D0070318D10A8C
:10262E000030D1075108803AFF0080307F02031D31
:10263E00222BFF305002031C252B262B342BFF3070
:10264E0083120313D0000030D1000030C5000030DB
:10265E00C4000030C3000030C200831203135108BF
:10266E00803AFF0080307F02031D3F2B0130500265
:10267E000318422B432B502B83120313D001D1018D
:10268E000030C5000030C4000030C3000030C2006E
:10269E00CF01831203135008C6004608D600561CFD
:1026AE00592B5A2B5C2BC417602B7F30C600460863
:1026BE00C4055608C6000310460CC7004708C500DF
:1026CE004F08C6004608C504042A080083120313E7
:1026DE00D1006E305102031C752B762B832C3F30AC
:1026EE00A7000030A6000030A5000030A400643022
:1026FE00F6000030F7005108C200C3014208F8008E
:10270E004308F9000A168A15F2250A168A11760868
:10271E0083120313C40001300310C40DFF3E031DCA
:10272E00932B0310440D7D3E84000A168A1500205B
:10273E000A168A11C5000A168A1500200A168A1171
:10274E00C6000A168A1500200A168A11C7000A1634
:10275E008A1500200A168A11C8004808AB004708DF
:10276E00AA004608A9004508A8000A128A159F2447
:10277E000A168A11831203132708D0002608CF00E9
:10278E002508CE002408CD000A30F6000030F700F0
:10279E005108C200C3014208F2004308F30064303E
:1027AE00F0000030F1000A168A15B8250A168A11B3
:1027BE007108F9007008F8000A168A15F2250A1633
:1027CE008A11760883120313C40001300310C40D5E
:1027DE00FF3E031DED2B0310440D593E84000A16D7
:1027EE008A1500200A168A11C5000A168A150020BD
:1027FE000A168A11C6000A168A1500200A168A11B0
:10280E00C7000A168A1500200A168A11C800480841
:10281E00A7004708A6004608A5004508A4005008D2
:10282E00AB004F08AA004E08A9004D08A8000A12D6
:10283E008A159F240A168A11831203132708CC00C7
:10284E002608CB002508CA002408C9000A30F0006B
:10285E000030F1005108C200C3014208F2004308E3
:10286E00F3000A168A15B8250A168A117008831203
:10287E000313C40001300310C40DFF3E031D422C90
:10288E000310440D353E84000A168A1500200A16E0
:10289E008A11C5000A168A1500200A168A11C6006A
:1028AE000A168A1500200A168A11C7000A168A15FA
:1028BE0000200A168A11C8004808A7004708A6007B
:1028CE004608A5004508A4004C08AB004B08AA001A
:1028DE004A08A9004908A8000A128A159F240A1658
:1028EE008A11831203132708C1002608C000250889
:1028FE00BF002408BE00772D0B305102031C882C1C
:10290E00892C342D3F30A7000030A6000030A500E2
:10291E000030A4000A30F6000030F7005108C20063
:10292E00C3014208F8004308F9000A168A15F22579
:10293E000A168A11760883120313C400013003109D
:10294E00C40DFF3E031DA62C0310440D593E8400FA
:10295E000A168A1500200A168A11C5000A168A154B
:10296E0000200A168A11C6000A168A1500200A16B9
:10297E008A11C7000A168A1500200A168A11C80085
:10298E004808AB004708AA004608A9004508A80059
:10299E000A128A159F240A168A1183120313270816
:1029AE00D0002608CF002508CE002408CD000A301E
:1029BE00F0000030F1005108C200C3014208F200DD
:1029CE004308F3000A168A15B8250A168A117008EC
:1029DE0083120313C40001300310C40DFF3E031D08
:1029EE00F32C0310440D353E84000A168A15002080
:1029FE000A168A11C5000A168A1500200A168A11AF
:102A0E00C6000A168A1500200A168A11C7000A1671
:102A1E008A1500200A168A11C8004808A700470820
:102A2E00A6004608A5004508A4005008AB004F08B4
:102A3E00AA004E08A9004D08A8000A128A159F2464
:102A4E000A168A11831203132708C1002608C00034
:102A5E002508BF002408BE00772D3F30A7000030A8
:102A6E00A6000030A5000030A4005108C2000130BD
:102A7E000310C20DFF3E031D3F2D0310420D353EC8
:102A8E0084000A168A1500200A168A11C3000A1637
:102A9E008A1500200A168A11C4000A168A1500200B
:102AAE000A168A11C5000A168A1500200A168A11FE
:102ABE00C6004608AB004508AA004408A900430812
:102ACE00A8000A128A159F240A168A11831203136C
:102ADE002708C1002608C0002508BF002408BE0034
:102AEE0008008312031355088039DA005A08E200F1
:102AFE005508DA005A07DB005B08E400D41F882D66
:102B0E00892D8A2D6414640803198E2D8F2D9F2D07
:102B1E00640A031D932D942D9C2D0030D50000309A
:102B2E00D4000030D3000030D200D417D501A72D29
:102B3E000030D5000030D4000030D3000030D20079
:102B4E0059088039DA005A08E3006308620603194F
:102B5E00B12DB22DB32D62175908DA005A07DB00DA
:102B6E005B08E300D81FBC2DBD2DBE2D631463087A
:102B7E000319C22DC32DD32D630A031DC72DC82DD6
:102B8E00D02D0030D9000030D8000030D7000030F2
:102B9E00D600D817D901DB2D0030D9000030D8006F
:102BAE000030D7000030D600640863020318E02D11
:102BBE00E12D252E621FE42DE52DE92D8030DA0062
:102BCE005A08E2066408DA005A08E5006308DA00DB
:102BDE005A08E4006508DA005A08E3005208DA00E1
:102BEE005A08E5005608DA005A08D2006508DA00DD
:102BFE005A08D6005308DA005A08E5005708DA00DA
:102C0E005A08D3006508DA005A08D7005408DA00CB
:102C1E005A08E5005808DA005A08D4006508DA00A8
:102C2E005A08D8005508DA005A08E5005908DA00A3
:102C3E005A08D5006508DA005A08D900E50163087C
:102C4E00DA00DB015B08DD0064085A02DC00031CBD
:102C5E00DD035D08803AFF0080307F02031D392EB0
:102C6E001A305C02031C3C2E3D2E7A2E8312031367
:102C7E005508540453045204031D462E482E0130A9
:102C8E00492E0030DA005A08E5000030D500003039
:102C9E00D4000030D3000030D2006308DA005A08A6
:102CAE00E400822E651C5C2E5D2E662E6508DA0011
:102CBE0003105A0C0138DB005B08E500682E031088
:102CCE00E50C521C6B2E6C2E6D2EE5170130DA00C2
:102CDE00550DD50CD40CD30CD20CDA0B6F2E013053
:102CEE00DA005A08E4078312031363086402031C14
:102CFE00812E822E592E621B852E862ED12E640891
:102D0E00031D8A2E8B2E942E0030D5000030D40059
:102D1E000030D3000030D200FF2F5608D2075708DC
:102D2E0003110318013E03199D2ED30758080311F2
:102D3E000318013E0319A42ED407590803110318D2
:102D4E00013E0319AB2ED507551CAE2EAF2E852F87
:102D5E00651CB22EB32EBC2E6508DA0003105A0C79
:102D6E000138DB005B08E500BE2E0310E50C521C9B
:102D7E00C12EC22EC32EE5170130DA00550DD50C2B
:102D8E00D40CD30CD20CDA0BC52E0130DA005A0853
:102D9E00E407852F5508803AFF005908803A7F02D4
:102DAE00031DE32E58085402031DE32E5708530249
:102DBE00031DE32E560852020318E62EE72E3F2F70
:102DCE00FF30DA00FF30DB00FF30DC00FF30DD00CB
:102DDE005608DE005708DF005808E0005908E100E9
:102DEE005208DE025308031C530FFE2EFF2EDF0285
:102DFE005408031C540F042F052FE0025508031C22
:102E0E00550F0A2F0B2FE1025E08DA075F08031831
:102E1E005F0F122F132FDB0760080318600F182F98
:102E2E00192FDC0761080318610ADD075D08D5005C
:102E3E005C08D4005B08D3005A08D2008030DA0058
:102E4E005A08E206E509E50A6508031D2F2F302F03
:102E5E004D2F0130D207003003180130D307003058
:102E6E0003180130D407003003180130D5074D2F59
:102E7E005608D2025708031C570FD3025808031CDA
:102E8E00580FD4025908031C590FD5025508540483
:102E9E0053045204031D542F552F812F6508031D13
:102EAE00592F5A2F812F0030D5000030D40000301A
:102EBE00D3000030D200FF2F0130DA000310D20D04
:102ECE00D30DD40DD50DDA0B652FE51F6F2F702F97
:102EDE00712F5214651C742F752F782F0314E50D66
:102EEE007A2F0310E50D640803197E2F7F2F812F93
:102EFE000130E402D41F842F852F632FE301E51FD9
:102F0E00892F8A2F982F65087F3903198F2F902FBD
:102F1E00932FE301E30A982F521C962F972F982F89
:102F2E00902F630803199C2F9D2FD12F0130D207AC
:102F3E00003003180130D307003003180130D407D6
:102F4E00003003180130D507551CAE2FAF2FD12FEF
:102F5E005208DA005308DB005408DC005508DD0087
:102F6E000130DE005D0DDD0CDC0CDB0CDA0CDE0B53
:102F7E00B92F5D08D5005C08D4005B08D3005A0851
:102F8E00D200640A0319CC2FCD2FD12F0130DA00D5
:102F9E005A08E407640A0319D52FD62FDB2F6408CD
:102FAE00031DDA2FDB2FE92F0030D5000030D400BF
:102FBE000030D3000030D2006408031DE72FE82F45
:102FCE00E92FE201641CEC2FED2FEF2FD417F32F16
:102FDE007F30DA005A08D4056408DA0003105A0C60
:102FEE00DB005B08D500E21FFD2FFE2FFF2FD5174C
:102FFE00080018308A000408840A8207003400345E
:10300E00003480343F3400340034203441340034F2
:10301E000034C8344234003400347A34443400343A
:10302E0040341C34463400345034C33447340034F6
:10303E002434743449348034963418344B34203468
:10304E00BC34BE344C3428346B346E344E34F934C4
:10305E00023415345034EC347834AD346034CA3420
:10306E00F234493471340034003480343F34CD347A
:10307E00CC34CC343D340A34D73423343C346F341E
:10308E00123483343A341734B734D1343834AC3440
:10309E00C53427343734BD3437348634353495341B
:1030AE00BF34D63433347734CC342B3432345F34AB
:1030BE00703489343034FF34E634DB342E34083443
:1030CE00E5343C341E3460344234A2340D340134C1
:1030DE000034003400340A340034003400346434D4
:1030EE00003400340034E834033400340034103437
:1030FE00273400340034A034863401340034403494
:10310E0042340F3400348034963498340034003412
:10311E00E134F53405340034CA349A343B34253462
:0E312E002E343034323466340D340A3400341A
:1039AE0064008001840A0406031900340406D82C2E
:1039BE0073087204710470040319E62CE72CE92CC9
:1039CE008030F3060800F100F0013A30710203185E
:1039DE00F12CF22CFA2C30307102031CF72CF82C3F
:1039EE00FA2CF001F00A700C0800831203131F1159
:1039FE001F14831603139F111F119F101F10831284
:103A0E0003131F139F17831603131F179F17080007
:103A1E00F3001E2D73088400831300080A168A1102
:103A2E0000200A168A150130F2007208F3070130E1
:103A3E00F102710A031D242D252D112D0800F5000C
:103A4E00003083160313181901307506031D302D2F
:103A5E00312D372D8130F4007408F60018153C2DE9
:103A6E001F30F4007408F600181118127608990029
:103A7E00181383120313181398178316031398162B
:103A8E000800803083120313E9066D08D5006C0818
:103A9E00D4006B08D3006A08D2006908D900680800
:103AAE00D8006708D7006608D6000A168A1178254E
:103ABE000A168A15831203135508E9005408E80004
:103ACE005308E7005208E6000800F401F501701CE7
:103ADE00712D722D782D7208F4070318F50A7308EC
:103AEE00F50701300310F20DF30DFF3E031D792D86
:103AFE0001300310F10CF00CFF3E031D802D7008F9
:103B0E007104031D8B2D8C2D6E2D7508F10074081C
:103B1E00F0000800F800F401F5017008F200F3015E
:103B2E007208F6007308F700781C9E2D9F2DA52DA8
:103B3E007608F4070318F50A7708F5070130031025
:103B4E00F60DF70DFF3E031DA62D0310F80C780899
:103B5E00031DB22DB32D9B2D7508F1007408F000D6
:103B6E000800700871040319BD2DBE2DED2DF50151
:103B7E00F50ACC2D01300310F00DF10DFF3E031DA3
:103B8E00C22D0130F4007408F507F11FCF2DD02D92
:103B9E00C12D71087302031DD62D70087202031C0D
:103BAE00D92DDA2DE02D7008F2027108031CF303F3
:103BBE00F30201300310F10CF00CFF3E031DE12D5A
:103BCE000130F502031DEC2DED2DD02D7308F10003
:103BDE007208F0000800FB01FC0176087704031957
:103BEE00F92DFA2D312EFD01FD0A082E013003109C
:103BFE00F60DF70DFF3E031DFE2D0130FA007A087B
:103C0E00FD07F71F0B2E0C2EFD2D01300310FB0DA3
:103C1E00FC0DFF3E031D0D2E77087902031D192E94
:103C2E0076087802031C1C2E1D2E242E7608F80210
:103C3E007708031CF903F9027B1401300310F70C0B
:103C4E00F60CFF3E031D252E0130FD02031D302E06
:103C5E00312E0C2E7C08F7007B08F6000800003091
:103C6E007005F80000307105F90080307205FA0019
:103C7E007F307305FB007B087A0479047804031DFA
:103C8E00492E4A2E522E0030F3000030F200003042
:103C9E00F1000030F00000307405F80000307505BA
:103CAE00F90080307605FA007F307705FB007B083F
:103CBE007A0479047804031D652E662E6E2E00306C
:103CCE00F7000030F6000030F5000030F400770801
:103CDE007306031D7C2E76087206031D7C2E750856
:103CEE007106031D7C2E7408700603197F2E802E1C
:103CFE00822E0310832E03140800730872047104BD
:103D0E00700403198B2E8C2ECF2EF901F90A9C2EDE
:103D1E000130F8000310F00DF10DF20DF30DF80B5C
:103D2E00912E0130F8007808F907F31F9F2EA02E70
:103D3E008F2E73087702031DAE2E72087602031DB6
:103D4E00AE2E71087502031DAE2E70087402031C90
:103D5E00B12EB22EC02E7008F4027108031C710F22
:103D6E00F5027208031C720FF6027308031C730F20
:103D7E00F70201300310F30CF20CF10CF00CFF3EC5
:103D8E00031DC12E0130F902031DCE2ECF2EA02E03
:103D9E007708F3007608F2007508F1007408F00059
:103DAE000800F601F31FDC2EDD2EE42EF209F309D6
:103DBE00F20A0319F30AF601F60AF11FE72EE82EAE
:103DCE00ED2EF009F109F00A0319F10A70087104D9
:103DDE000319F22EF32E222FF501F50A012F0130D1
:103DEE000310F00DF10DFF3E031DF72E0130F40010
:103DFE007408F507F11F042F052FF62E71087302B4
:103E0E00031D0B2F70087202031C0E2F0F2F152F80
:103E1E007008F2027108031CF303F3020130031061
:103E2E00F10CF00CFF3E031D162F0130F502031DA1
:103E3E00212F222F052F76080319262F272F2C2FFF
:103E4E00F209F309F20A0319F30A7308F100720872
:103E5E00F00008000030FC000030FB000030FA00DB
:103E6E000030F90073087204710470040319402FB6
:103E7E00412F8E2FFD01FD0A512F0130F800031046
:103E8E00F00DF10DF20DF30DF80B462F0130F80089
:103E9E007808FD07F31F542F552F442F0130F800DB
:103EAE000310F90DFA0DFB0DFC0DF80B572F7308CF
:103EBE007702031D6C2F72087602031D6C2F71089A
:103ECE007502031D6C2F70087402031C6F2F702F68
:103EDE007F2F7008F4027108031C710FF50272082F
:103EEE00031C720FF6027308031C730FF70279148A
:103EFE0001300310F30CF20CF10CF00CFF3E031D1D
:103F0E00802F0130FD02031D8D2F8E2F552F7C0823
:103F1E00F3007B08F2007A08F1007908F00008003F
:103F2E0083120313A101F81F9D2F9E2FA52FF709B2
:103F3E00F809F70A0319F80AA101A10AFA1FA82F16
:103F4E00A92FB22FF909FA09F90A0319FA0A013051
:103F5E00FB007B08A106A201A301770878040319D0
:103F6E00B92FBA2FF12FA001A00AC82F01300310CC
:103F7E00F70DF80DFF3E031DBE2F0130FB007B0831
:103F8E00A007F81FCB2FCC2FBD2F01300310A20D91
:103F9E00A30DFF3E031DCD2F78087A02031DD92FE6
:103FAE0077087902031CDC2FDD2FE42F7708F90246
:103FBE007808031CFA03FA02221401300310F80CDD
:103FCE00F70CFF3E031DE52F0130A002031DF02F5D
:103FDE00F12FCC2F21080319F52FF62FFB2FA20955
:103FEE00A309A20A0319A30A2308F8002208F7005E
:0A3FFE000800FF3FFF3FFF3FFF3FB9
:02400E007A3FF7
:00000001FF
